:020000040800F2
:10000000580800200101000843100008950F00085F
:1000100041100008A10100081513000800000000AD
:100020000000000000000000000000006D1000084B
:10003000A301000800000000451000086F10000830
:100040001B0100081B0100081B0100081B01000820
:100050001B0100081B0100081B0100081B01000810
:100060001B0100081B0100081B0100081B01000800
:100070001B0100081B0100081B0100081B010008F0
:100080001B0100081B0100081B0100081B010008E0
:100090001B0100081B0100081B0100081B010008D0
:1000A0001B0100081B0100081B0100081B010008C0
:1000B0001B0100081B0100081B0100081B010008B0
:1000C0001B0100081B0100081B0100081B010008A0
:1000D0001B010008091300081B0100081B01000890
:1000E0001B0100081B0100081B010008DFF80CD0F1
:1000F00000F044F800480047ED13000858080020BD
:100100000648804706480047FEE7FEE7FEE7FEE7B1
:10011000FEE7FEE7FEE7FEE7FEE7FEE7C1100008A8
:10012000ED00000840EA01039B0703D009E008C97D
:10013000121F08C0042AFAD203E011F8013B00F8AC
:10014000013B521EF9D27047D2B201E000F8012BF8
:10015000491EFBD270470022F6E710B513460A4647
:1001600004461946FFF7F0FF204610BD421C10F868
:10017000011B0029FBD1801A70470000064C074D77
:1001800006E0E06840F0010394E807009847103467
:10019000AC42F6D3FFF7AEFF2C1500084C15000853
:1001A000FEE770477047000010B5002490F821105A
:1001B000022903D004218163012437E001680A6821
:1001C00022F00E020A6001680A6822F001020A6049
:1001D000174A0168914201D101211CE0154A914260
:1001E00001D1102117E0144A914201D1891512E082
:1001F000124A914201D189140DE0114A914202D173
:100200004FF4803107E00F4A914202D14FF4801140
:1002100001E04FF080710C4A5160012180F82110FB
:10022000002180F82010416B01B18847204610BDA5
:10023000080002401C00024030000240440002401E
:10024000580002406C0002400000024070B50446B5
:1002500000F016F90546B4F1FF3F02D004480078DB
:10026000044400F00DF9401BA042FAD370BD000019
:10027000240000202DE9F84F4FF0000C00230A68FD
:10028000002A7DD0DFF8DC810F2708F1040909F18D
:10029000040A0AF1040B012202FA0CF60A68324041
:1002A000B2426ED1DFF8C0E14C68A4EB0E05744594
:1002B0002BD00DDC032C34D005DC34B3012C19D049
:1002C000022C2FD11BE0112C16D0122C2AD119E0B0
:1002D000B5F5881F19D006DCB5F5803F15D0B5F50A
:1002E000801F1FD111E0B5F5001F0ED0B5F5041F1A
:1002F00018D10AE0CB6815E0CB681B1D12E0CB6873
:1003000008330FE0CB680C330CE08B6823B1012B72
:1003100004D00823466105E0042303E008230661B6
:1003200000E00023B2F5807F01D2054601E000F134
:10033000040502D24FEA8C0403E0ACF108044FEA52
:1003400084042E6807FA04FE26EA0E0603FA04F473
:1003500046EA04042C604C6814F0805F79D0434C6A
:10036000A56945F00105A561A46904F001040094A4
:100370002CF0030404F1804404F58034A66801E005
:100380006EE066E04FEA8C754FEA157507FA05FED8
:1003900026EA0E0EA0F18046B6F584361ED0A0F1F6
:1003A0008046B6F586361BD0A0F18046B6F5883675
:1003B00018D0A0F18046B6F58A3615D0042606FA84
:1003C00005F545EA0E05A5604C6814F4803F0DD094
:1003D000D8F800401443C8F800400CE00026EEE7CF
:1003E0000126ECE70226EAE70326E8E7D8F8004012
:1003F0009443C8F800404C6814F4003F05D0D9F885
:1004000000401443C9F8004004E0D9F80040944388
:10041000C9F800404C6814F4801F05D0DAF8004099
:100420001443CAF8004004E0DAF800409443CAF8E4
:1004300000404C6814F4001F05D0DBF80040224354
:10044000CBF8002005E0DBF8004024EA0202CBF8FC
:1004500000200CF1010C0A6832FA0CF27FF41BAF99
:10046000BDE8F88F000401400000111000100240A8
:10047000002A01D001617047090401617047000042
:10048000014880687047000024000020024881680D
:1004900002781144816070472400002010B507489D
:1004A000016841F010010160032000F08BF800208A
:1004B00000F006F800F026F8002010BD00200240F1
:1004C00070B504460D4D4FF47A712878B1FBF0F009
:1004D0000B490968B1FBF0F000F0BEFB08B1012048
:1004E00070BD102C07D200222146501E00F036F8B5
:1004F0006C60002070BD012070BD00002400002051
:10050000200000200C4808B5816941F0010181619B
:10051000816901F001010091C16941F08051C1611F
:10052000C06900F0805000900448416821F0E0610B
:1005300041F00071416008BD001002400000014020
:1005400000280ADB00F01F01012202FA01F1400934
:10055000800000F1E020C0F80011704710B4184B83
:100560001B68C3F30223C3F1070CBCF1040F01D9CC
:100570004FF0040C1C1D072C01D2002300E0DB1EF1
:10058000012404FA0CFCACF1010C0CEA01019940C5
:1005900004FA03F35B1E1A401143002806DB00F146
:1005A000E020090180F8001410BC704700F00F0033
:1005B00000F1E020090180F8141D10BC7047000014
:1005C0000CED00E000F00700064A11684FF6FF034B
:1005D000194041EA002040F0FD7040F0806010605A
:1005E000704700000CED00E02DE9F04704460D4691
:1005F000002C17D0DFF85C81D8F8000000F007006D
:10060000A84212D2D8F8000020F007002843C8F80A
:100610000000D8F8000000F00700A84205D0012033
:10062000BDE8F0870120BDE8F08720684A4E10F051
:10063000020F14D010F0040F03D0706840F4E06093
:100640007060207810F0080F03D0706840F460509C
:100650007060706820F0F001A06808437060207836
:1006600010F0010F3AD06068012806D002280BD0A4
:10067000316811F0020F27D00AE0316811F4003F11
:1006800006D10120BDE8F087316811F0007F18D055
:10069000716821F0030108437060FFF7F1FE07461F
:1006A0007068616800F00C00B0EB810F16D041F269
:1006B0008839FFF7E5FEC01B484508D90320BDE88F
:1006C000F0870120BDE8F0870120BDE8F087706861
:1006D000616800F00C00B0EB810FEAD1D8F800009F
:1006E00000F00700A8420FD9D8F8000020F007005A
:1006F0002843C8F80000D8F8000000F00700A8421E
:1007000002D00120BDE8F087207810F0040F05D05A
:100710007068E16820F4E06008437060207810F0B1
:10072000080F06D07068216920F4605040EAC100CB
:10073000706000F03FF87168084AC1F30311515C22
:10074000C8400749086007480068FFF7B9FE002065
:10075000BDE8F08700200240001002401415000898
:100760002000002028000020014800687047000099
:100770002000002000B5FFF7F7FF04494968044A4C
:10078000C1F30221515CC84000BD000000100240CE
:100790002415000800B5FFF7E7FF04494968044A3B
:1007A000C1F3C221515CC84000BD000000100240EE
:1007B0002415000885B015A0836842680168C068E8
:1007C000039302920191049014A000680090144BCE
:1007D0005968144801F00C02042A11D0082A0FD1DC
:1007E00001A8C1F38342805C11F4803F0AD05968AC
:1007F000C1F340411DF801100A4A5043B0FBF1F02B
:1008000005B07047084905B0484370470203040526
:10081000060708090A0B0C0D0E0F1010010200004C
:100820000010024000127A0000093D002DE9F84F47
:100830000446002C0FD02078F84D10F0010F6CD03A
:10084000686800F00C0004280CD0686800F00C0008
:10085000082803D010E00120BDE8F88F686810F484
:10086000803F09D0286810F4003F56D06068002807
:1008700053D10120BDE8F88F6068B0F5803F15D0F6
:10088000C8B1B0F5A02F1FD0286820F480302860B0
:10089000286820F480202860606858B3FFF7F0FDD6
:1008A0000646286810F4003F17D036E0286840F468
:1008B00080302860F0E7286820F4803028602868BD
:1008C00020F480202860E7E7286840F48020286032
:1008D000286840F480302860DEE7FFF7D1FD801BF8
:1008E000642802D90320BDE8F88F286810F4003F7F
:1008F000F3D012E0FFF7C4FD0646286810F4003F6D
:100900000BD0FFF7BDFD801B642802D90320BDE892
:10091000F88F286810F4003FF3D12078C04F10F012
:10092000020F4FF0010B4FF0000854D0686810F030
:100930000C0F14D0686800F00C00082803D1686818
:1009400010F4803F0BD0206978B3C7F800B0FFF7F0
:1009500097FD0646286810F0020F12D01DE02868A7
:1009600010F0020F05D02069012802D00120BDE857
:10097000F88F2868616920F0F80040EAC10028601B
:1009800029E0FFF77DFD801B022802D90320BDE886
:10099000F88F286810F0020FF3D02868616920F002
:1009A000F80040EAC100286015E0FFE7C7F80080C2
:1009B000FFF766FD0646286810F0020F0BD0FFF720
:1009C0005FFD801B022802D90320BDE8F88F28684C
:1009D00010F0020FF3D1207810F0080F30D09148BA
:1009E000A169C1B1C0F800B0FFF74AFD0646686AC8
:1009F00010F0020F0BD1FFF743FD801B022802D934
:100A00000320BDE8F88F686A10F0020FF3D00120D0
:100A100000F01AFB14E0C0F80080FFF731FD064635
:100A2000686A10F0020F0BD0FFF72AFD801B022826
:100A300002D90320BDE8F88F686A10F0020FF3D1E5
:100A4000207810F0040F6FD00026E86910F0805F66
:100A500008D1E86940F08050E861E86900F0805012
:100A600000900126DFF8C0A1DAF8000010F4807FC2
:100A70001BD1DAF8000040F48070CAF80000FFF7DC
:100A8000FFFC8146DAF8000010F4807F0DD1FFF7FB
:100A9000F7FCA0EB0900642802D90320BDE8F88F19
:100AA000DAF8000010F4807FF1D0E068012816D059
:100AB000D0B1052821D0286A20F001002862286AD8
:100AC00020F004002862E06841F2883A68B3FFF73A
:100AD000D7FC8146286A10F0020F17D03AE0286A46
:100AE00040F001002862EEE7286A20F00100286249
:100AF000286A20F004002862E5E7286A40F0040034
:100B00002862286A40F001002862DCE7FFF7B8FCA1
:100B1000A0EB0900504502D90320BDE8F88F286AF0
:100B200010F0020FF2D015E01AE0FFE7FFF7A8FC83
:100B30008146286A10F0020F0CD0FFF7A1FCA0EB51
:100B40000900504502D90320BDE8F88F286A10F04B
:100B5000020FF2D1012E03D1E86920F08050E86144
:100B6000E069E8B3696801F00C0108295ED0022849
:100B700010D0C7F86080FFF783FC0446286810F0A7
:100B8000007F66D0FFF77CFC001B022841D90320C0
:100B9000BDE8F88FC7F86080FFF772FC064628684A
:100BA00010F0007F0BD0FFF76BFC801B022802D9EE
:100BB0000320BDE8F88F286810F0007FF3D1206A89
:100BC000B0F5803F05D16868A16820F40030084383
:100BD0006860616A206A0843696821F4741100E062
:100BE00037E008436860C7F860B0FFF749FC044687
:100BF000286810F0007F2CD1FFF742FC001B022870
:100C000002D90320BDE8F88F286810F0007FF3D0E8
:100C10001FE0286810F0007FB4D11AE000100240F5
:100C200000004242800442420070004001280DD082
:100C30006868226A00F48031914204D1616A00F44C
:100C40007010884205D00120BDE8F88F0120BDE872
:100C5000F88F0020BDE8F88F401EB0F1807F01D3EF
:100C6000012070474FF0E0214861044AF0201070E5
:100C700000208861072008610020704723ED00E014
:100C80007047000010B5044622681068D1685269A8
:100C900000F00F03002B0AD110F0200F07D011F045
:100CA000200F04D02046BDE8104000F050BA002BC1
:100CB00071D002F0010301F4907C53EA0C0C6AD06D
:100CC00010F0010F08D011F4807F05D0D4F83CC09B
:100CD0004CF0010CC4F83CC010F0040F08D012F026
:100CE000010F05D0D4F83CC04CF0020CC4F83CC055
:100CF00010F0020F06D012F0010F03D0E26B42F0A9
:100D00000402E26310F0080F07D001F020021A433A
:100D100003D0E26B42F00802E263E26B002A2ED0BD
:100D200010F0200F05D011F0200F02D0204600F067
:100D30000EFA20684069C0F38010E16B11F0080FD3
:100D400000D108B3204600F0E7F92068416911F0AE
:100D5000400F15D0416921F040014161606B58B1ED
:100D600018494163606BFFF71FFA002807D0606BDA
:100D7000416BBDE8104008472046FFF781FF10BDDA
:100D80002046FFF77DFF10BD2046FFF779FF0020CA
:100D9000E06310BDFFE710F0800F07D011F0800F67
:100DA00004D02046BDE8104000F07EBA10F0400F9D
:100DB000EFD011F0400FECD02046BDE8104000F01D
:100DC000B9B900000911000870B50446002C04D020
:100DD00094F83900002510B106E0012070BD84F8B8
:100DE0003850204600F022F8242084F8390020688A
:100DF000C16821F40051C160204600F0F1F920687B
:100E0000016921F4904101612068416921F02A01C2
:100E100041612068C16841F40051C160E563202050
:100E200084F8390084F83A00002070BD30B585B0F0
:100E300000240094019402940394006818498842A5
:100E40002CD11848816941F480418161816901F4A4
:100E500080410491816941F0040181618069124DF2
:100E600000F0040004904FF4007000900220019004
:100E70000320039069462846FFF7FCF92815CDE9C1
:100E80000004694628460294FFF7F4F9002211464F
:100E90002520FFF763FB2520FFF752FB05B030BD8F
:100EA00000380140001002400008014090F83A303C
:100EB000202B01D002207047F9B1F2B190F8383000
:100EC000012B1CD081628285C2850021C163222250
:100ED00080F83A2080F838100168CA6842F48072BD
:100EE000CA6001684A6942F001024A610068C1684B
:100EF00041F02001C16000207047012070470220AE
:100F0000704700000C480078002813D10B480D49A9
:100F10000B4A037808781354401CC0B208700A2B9F
:100F200004D0012205490848FFF7C0BF074B002144
:100F300019701154704700001B0000201E00002093
:100F4000300000201D000020180400201C0000209C
:100F500090F83930202B01D002207047A9B1A2B1FE
:100F600090F83830012B12D001628284C2840021B3
:100F7000C163212280F8392080F838100068C168E8
:100F800041F08001C16000207047012070470220BD
:100F900070477047FEE7000030B585B00020009034
:100FA0000190029003901648816941F0200181610F
:100FB000816901F020010491816941F0080181619A
:100FC000816901F008010491816941F004018161A6
:100FD00080690C4D00F004004FF44044049001225D
:100FE00021462846FFF744FA01210320CDE90210EB
:100FF000CDE9004169462846FFF73CF905B030BD10
:1010000000100240000C01400C4810B50A49016074
:101010004FF416514160002181600C22C160C0E98B
:1010200004128161C161FFF7CFFE002803D0BDE843
:101030001040FFF7B7B810BD003801401804002079
:10104000FEE770477047000081B007494FF4FA523D
:101050000968B1FBF2F14843009000BF0098411EBF
:101060000091FAD201B07047200000207047FFF7CE
:101070000DBA30B58FB028216846FFF76CF81421FF
:101080000AA8FFF768F801210804CDE90010002440
:10109000029402250491CDE907504FF4E010099025
:1010A0006846FFF7C3FB0F20CDE90A056802CDE9CA
:1010B0000C4002210AA80E94FFF796FA0FB030BD3B
:1010C0000D48016841F00101016041680B4A11407F
:1010D000416001680A4A11400160016821F48021E1
:1010E0000160416821F4FE0141604FF41F018160FD
:1010F0000449C00308607047001002400000FFF878
:10110000FFFFF6FE08ED00E010B5406A0021C18542
:10111000C184FFF7B5FD10BD0168CA6822F4907262
:10112000CA6001684A6922F001024A61202180F800
:101130003A10704710B50168CA6822F04002CA60D0
:10114000202180F83910FFF724FF002010BD10B5D2
:1011500090F83A10222901D0022010BD8268B2F521
:10116000805F01D1016929B1816AB2F5805F1DD02C
:1011700052B10BE0816A02685268C2F308020A8029
:10118000816A891C816209E002697AB10268526849
:1011900002F07F020A70816A491C8162C18D491E7A
:1011A0000904090CC18505D0002010BD02685268F1
:1011B0000A70F0E70168CA6822F02002CA6001687C
:1011C000CA6822F48072CA6001684A6922F001028A
:1011D0004A61202180F83A10FFF794FE002010BDEC
:1011E00070B5044620680169E26821F4405111435A
:1011F00001612169A0680843616901432068C268F0
:1012000022F4037222F4A0521143C16020684169A4
:10121000A26921F44071114341612068A0F180412D
:10122000B1F59C313AD0FFF7A5FA00EBC00101EB14
:10123000001061681B4A8900B0FBF1F3A2FB035365
:10124000B0FBF1FC5B096FF018056B430CEB8303FB
:101250004FF0320C0CEB0313A2FB03535B0903F0BA
:10126000F005B0FBF1F3A2FB03635B0905EB03138D
:10127000B0FBF1F5B0FBF1F0A2FB001040096FF0FC
:101280001801484305EB80000CEB0010A2FB001096
:101290002168C0F343101844886070BDFFF77AFAE4
:1012A000C3E700001F85EB5190F83910212901D0C8
:1012B000022070478168B1F5805F01D1016961B199
:1012C000016A4A1C0262026809785160C18C491E99
:1012D0000904090CC1840AD013E0016A0268098874
:1012E000C1F308015160016A891C0162EEE70168DF
:1012F000CA6822F08002CA600068C16841F04001FB
:10130000C1600020704700000148FFF7BBBC00002F
:1013100018040020FEE702E008C8121F08C1002AD6
:10132000FAD170477047002001E001C1121F002A66
:10133000FBD1704770B54FF48041114C4D0001282E
:1013400013D0022813D0032813D0042817D1012268
:101350002046FFF78DF8012229462046FFF788F83E
:10136000BDE870400520FEF771BF0022F0E70022C3
:1013700000E001222046FFF77BF80022ECE770BD79
:10138000000C014010B5184C022804D0032809D0E5
:10139000042815D020E00120FFF7CCFF206806E0EC
:1013A00002201CE00120FFF7C5FF54F8120F237A3A
:1013B000616863F3070200F07DF80028F0D00BE0CD
:1013C0000120FFF7B7FF54F8090F237A616863F330
:1013D000070200F06FF808B1012010BD0320FFF7ED
:1013E000A9FF002010BD00000000002088B02022CE
:1013F00024A16846FEF796FEFFF750F8FFF739FE86
:10140000FFF7CAFDFFF700FE4FF47A70FEF71EFFEC
:101410004FF4FA7402E02046FEF718FF0220FFF7AF
:10142000B1FF0128F7D06420FEF710FF01221D490B
:101430001D48FFF73BFD1B4C1C4E00274FF00108D9
:10144000A41E28466D1CB04208D96846FEF78EFEE1
:1014500082B269461448FFF77BFD002520780028FA
:10146000EFD11348FEF782FE82B211490E48FFF712
:101470006FFD84F80080677001220A490A48FFF76F
:1014800015FDDEE75468697320697320612074726A
:10149000616E73706172656E74206D6573736167E0
:1014A000650D0A001E0000201804002080A812010B
:1014B0003000002037B5144CC22000252070657024
:1014C0000920A070032069460A1812F8032C225440
:1014D000401C40B20C28F7DB0C220B490B48FFF7ED
:1014E00037FD0C2208490948FFF7E0FC4FF4FA7079
:1014F000FEF7ACFE2078C12801D001203EBD044893
:101500002570057000203EBD30000020180400202A
:101510001B00002000000000000000000102030486
:101520000607080900000000010203044C1500082A
:101530000000002030000000161300087C15000891
:10154000300000202808000026130008FFFF00627A
:1015500000170300000000006200170B00000000ED
:1015600001620017030000010103000000A24A0409
:0C1570000100000010000000000000005E
:04000005080000ED02
:00000001FF
